:020000040800F2
:10000000A01B002061550008F14000086B55000856
:10001000F3400008F7400008FB4000080000000023
:10002000000000000000000000000000FF40000889
:10003000014100080000000077550008D141000888
:100040007B5500087B5500087B5500087B55000850
:100050007B5500087B5500087B5500087B55000840
:100060007B5500087B5500087B5500087B55000830
:100070007B5500087B5500087B5500087B55000820
:100080007B5500087B5500087B5500087B55000810
:100090007B5500087B5500087B550008034100088C
:1000A0007B5500087B5500087B5500087B550008F0
:1000B0007B550008154100081D4100087B550008CC
:1000C0007B5500087B5500087B5500087B550008D0
:1000D0007B550008394100084141000849410008AA
:1000E0007B5500087B5500087B5500087B550008B0
:1000F0007B5500087B5500087B5500087B550008A0
:100100007B5500087B5500087B5500087B5500088F
:1001100051410008594100087B5500081F41000863
:100120007B5500087B5500087B5500087B5500086F
:100130007B5500087B5500087B5500087B5500085F
:100140007B5500087B5500087B5500087B5500084F
:100150007B5500087B5500087B550008614100086D
:100160007B5500087B5500087B5500087B5500082F
:100170007B5500087B5500087B5500087B5500081F
:100180007B5500087B550008DFF810D00DF004FC0B
:1001900000480047A5010008AFF30080A01B002025
:1001A00000BFFEE702F06EFD00F00EF801E000F087
:1001B00031F8FCE7704770477047704710B500F0A2
:1001C00051F810BD70477047002000BF1FE000EBE2
:1001D0004001234A02EB810189884FF47A7292FB35
:1001E000F1F100EB40021E4B03EB8202D18000EBE9
:1001F00040011A4602EB8101C988012905DA012173
:1002000000EB400203EB8202D180411CC8B20728F8
:10021000DDD3704770B5002400BF1EE003F0E2FF9D
:10022000054604EB44000E4901EB80008068281A63
:1002300004EB44010A4A02EB8101C98888420AD3CF
:1002400004EB4400114601EB8000856004EB44019F
:1002500052F821008047601CC4B2072CDED370BD69
:100260000000002010B52C4890F83800002851D12B
:100270002948B0F9440040F2145188420FDD264865
:10028000B0F9440040F2A461884208DA23480078BB
:1002900040B9642000F043FF2049087002E00020CC
:1002A0001E4908701C48B0F94400B0F5487F0DDDC8
:1002B0001948B0F94400B0F5966F07DA184800788D
:1002C00038B900F04DFF1649087002E000201449CB
:1002D00008701148B0F9440040F2A46188420FDD73
:1002E0000D48B0F9440040F69801884208DA0D48FC
:1002F000007840B901200B4908700B49087002E0F2
:1003000000200849087007480078012802D0002022
:100310000549087010BD0000FC0A002054000020B0
:10032000550000205600002057000020FF20F7490C
:1003300081F84E006421F548A0F850100121A0F882
:100340005210FF20F14981F880011421EF48A0F8F4
:1003500082110021A0F88411FF20EC4981F82001CE
:100360000021EA48A0F82211A0F82411FF20E74953
:1003700081F832010021E548A0F83411A0F83611C7
:10038000FF20E24981F838010021E048A0F83A1145
:10039000A0F83C11FF20DD4981F886010021DB48EF
:1003A000A0F88811A0F88A11FF20D84981F84005EB
:1003B0000021D648A0F84215A0F84415FF20D349E3
:1003C00081F84C050021D148A0F84E15A0F8501531
:1003D000704770B504460D462946204605F027F8BB
:1003E00070BDCA4A10700122C84B5A707047C74A84
:1003F00082F84C05012382F84D3570472DE9F04312
:1004000004460D460026B046E178A81F814201D07F
:10041000BDE8F083002708E0E05D3044C6B208EB99
:10042000060000F0FF08781CC7B2A81EB842F3DC33
:10043000601910F8020CB04204D1601910F8010CD8
:10044000404500D0E4E72078AA2805D160786128EB
:1004500003D06078FF2800D0DAE7A078202811D1F7
:10046000A088AB490880E08848802089888060891E
:10047000C880A0890881E0894881208A8881608AB3
:10048000C88184E0A0780F280DD1207940B2A1491D
:100490000870607940B24870A07940B28870E07905
:1004A00040B2C87073E0A07806280CD120799A4930
:1004B00048706079C870A0790871E17996484171F7
:1004C000217A817163E0A078072860D0A078E028C5
:1004D0001ED12079012806D0022805D0102804D08A
:1004E000112804D102E003E002E001E000E000BFD7
:1004F00000BF2079854981F80C06084680F80D6612
:1005000080F80E8600F20C61AF20FFF76AFF3EE034
:10051000A078B0B97D4890F80F062179884236D18D
:100520007A4890F810066179884230D1774890F87F
:100530001106A17988422AD10020744981F8000669
:1005400025E0A078E12811D12179607901EB002024
:100550001FFA80F96D48A0F814960021C0F818160B
:1005600000F21461FF20FFF742FF10E0A078E228BC
:100570000DD12079654981F80C06084680F80D6692
:1005800080F80E8600F20C61FF20FFF72AFF00BF03
:100590003EE710B504466148007838B9AA2C05D169
:1005A00001205E4908705E48047072E05B48007884
:1005B000012809D1612C01D0FF2C05D10220574917
:1005C00008705748447064E054480078022805D108
:1005D000032052490870524884705AE04F4800780E
:1005E00003280CD1FA2C0ADA04204C4908704C4834
:1005F000C4704C48047000204B49087049E04748DB
:100600000078042819D147480078002815DD4548AE
:100610000078401E434908704348007842490978F1
:10062000491C414A1170001D3D490C543D48007859
:1006300058BB0520394908702BE038480078052858
:100640000DD10620354908703748007836490978B9
:10065000491C354A1170001D31490C5419E02F48CE
:100660000078062812D100202C4908702E48007806
:10067000001D2B490C542C480078401D2B49087054
:10068000084601782648FFF7B9FE02E0002023491A
:10069000087010BD7CB503460020342B63D007DC06
:1006A0007BB10D2B23D0302B2ED0332B76D14CE0C9
:1006B000402B66D0412B74D0E02B7FD0E22BF5D1BC
:1006C00090E0124C94F80C560E78741C0C709555F2
:1006D0000E4C94F80D560E78741C0C7095550B4CFE
:1006E00094F80E560E78741C0C709555A9E00020F5
:1006F00007E00F4C255C0E78741C0C709555441C5B
:10070000E0B20428F5DB9CE000201BE0DC010020C7
:100710000609002060010020560900205C0000202E
:10072000F80700205A0000205B000020580000203D
:100730005E000020C34C255C0E78741C0C7095552F
:10074000441CE0B21728F5DB7BE0002008E0BD4C3C
:10075000193C255C0E78741C0C709555441CE0B255
:100760000628F4DB6DE0002008E0B64CE41F255CB1
:100770000E78741C0C709555441CE0B20728F4DB0D
:100780005FE0002007E0B04C255C0E78741C0C7014
:100790009555441CE0B21428F5DB52E050E000E02F
:1007A0000CE0002007E0A94C255C0E78741C0C704E
:1007B0009555441CE0B20E28F5DB42E0A44C94F8B9
:1007C00001560E78741C0C709555002007E0A14C62
:1007D000255C0E78741C0C709555441CE0B20A28F8
:1007E000F5DB2EE09A4CB4F8144624B201949DF83F
:1007F00004500E78741C0C7095559DF805500E78B9
:10080000741C0C709555924CD4F8184600949DF8C1
:1008100000500E78741C0C7095559DF801500E78A0
:10082000741C0C7095559DF802500E78741C0C7059
:1008300095559DF803500E78741C0C70955500E08A
:1008400000BF00BF7CBDF8B504460F4600200090F5
:10085000AA219DF80020501CC0B200907E4881540F
:1008600039789DF80020501CC0B200907A4881541D
:100870009DF80010481CC0B20090774844540021F5
:100880009DF80020501CC0B200907348815402466D
:1008900069462046FFF7FEFE9DF80000001F6E49E6
:1008A000C87000250026002007E06B49095C294438
:1008B000CDB27119CEB2411CC8B29DF80010884269
:1008C000F3DB9DF80010481CC0B20090624845540C
:1008D0009DF80010481CC0B200905F4846545C4828
:1008E00090F8000640B1E02C06D1594880F80F4638
:1008F00080F8105680F811669DF800105648FFF7F2
:1009000068FDF8BD10B5044604EB4400504901EB06
:100910004000408828B304EB440001EB400080888D
:1009200004EB44014A4A02EB4101498888420CDA4F
:1009300004EB4400114601EB40008088401C04EBAE
:10094000440102EB410188800BE0012004EB4401EB
:100950003F4A02EB4101888004EB440102EB410174
:10096000487004EB44003A4901EB4000407868B11C
:10097000002004EB4401364A02EB4101487004EBCD
:10098000440002EB40012046FFF75DFF10BD304AF6
:1009900082F84005012382F8413501222C4B83F86F
:1009A0000026704710B52DED028BB0EE408A00F0A6
:1009B0001BF83020FFF7A6FF3320FFF7A3FF3420FA
:1009C000FFF7A0FF4020FFF79DFF4120FFF79AFFB0
:1009D000E020FFF797FFE220FFF794FF0D20FFF7DD
:1009E00091FFBDEC028B10BD194890F8000601285C
:1009F00021D11A480078322805DA18480078401CBE
:100A0000164908701CE0002014490870144800784A
:100A1000401C1349087008460078052804DA0121B3
:100A20000B4880F841150BE000200D49087008497B
:100A300081F8000604E000200849087008490870A1
:100A4000704700003F090020360B0020F808002006
:100A5000DC010020DE070020A80100205D0000204E
:100A60005900002000B52DED028B85B0B0EE408A14
:100A7000F74890F8380000287CD1F54890F8390004
:100A80000028F9D1F248B0F94200B0F5966F06DAC5
:100A9000012000F003FB0120EE49087013E0EC4850
:100AA000B0F9420040F2A461884206DA022000F068
:100AB000F5FA0220E749087005E0032000F0EEFA9D
:100AC0000320E4490870E3484078E2490978884205
:100AD0000BD0E0480078DF494870084600780328CA
:100AE00003D108468078401C8870DA48807810B3BB
:100AF000D9480088B0F5FA6F10DAD748008800EEC0
:100B0000100AB8EE400ADFEDD50A00EE880ABCEE06
:100B1000C00A10EE100AD04908800CE0CD4989784F
:100B2000032901DB00F0E2FA20B10021CA4A11805A
:100B3000C84A917000BFC648B0F93A00A0F2DC5034
:100B400000EE900AF8EEE00AB0EE600A9FEDC41ADB
:100B5000DFEDC40A02F01EFD8DED010ABC48B0F9BC
:100B60003C00A0F2DC5000EE900AF8EEE00AB0EE95
:100B7000600A00E085E09FEDBA1ADFEDBA0A02F0E4
:100B800009FD8DED020AB248B0F93E00A0F2DC503A
:100B900000EE900AF8EEE00AB0EE600A9FEDB21A9D
:100BA000DFEDB00A02F0F6FC8DED030AA848B0F9BB
:100BB0004000A0F2DC5000EE900AF8EEE00AB0EE41
:100BC000600A9FEDA91ADFEDA70A02F0E3FC8DEDA4
:100BD000040AA648007858B19FEDA20A8DED010ADB
:100BE0009FEDA00A8DED020A9FED9E0A8DED040A8D
:100BF0009848007802283ADA9DED010ADFED9C0A58
:100C000020EE200ADFED9B0A20EE200ABDEEC00A8E
:100C100010EE100A00B2984908809DED020AB1EE6C
:100C2000400ADFED930A20EE200ADFED920A20EE63
:100C3000200ABDEEC00A10EE100A00B248808448B7
:100C4000C08FA0F57A7000B288809DED040AB1EEE5
:100C5000400ADFED8A0A20EE200ADFED890A20EE45
:100C6000200ABDEEC00A10EE100A00B2C8800121B1
:100C7000844880F8871100208349087083490870F0
:100C80001EE08348C07878B17F48007828B90320F7
:100C900000F004FA7C49087006E07C48007818B936
:100CA00000F024FA794908700020734908804880D0
:100CB0004FF4AF7088800020C88088814881088107
:100CC00005B0BDEC028B00BD10B50446714800882C
:100CD00000EE100AB8EE400ADFED6F0A20EE200A9F
:100CE000BDEEC00A10EE100A00B26C4908806948D7
:100CF000408800EE100AB8EE400ADFED670A20EEE9
:100D0000200ABDEEC00A10EE100A00B24880614809
:100D1000808800EE100AB8EE400ADFED5F0A20EE90
:100D2000200ABDEEC00A10EE100A00B288805948B1
:100D3000C08800EE100AB8EE400ADFED570A20EE38
:100D4000200ABDEEC00A10EE100A00B2C880514859
:100D5000008900EE100AB8EE400ADFED4F0A20EEDF
:100D6000200ABDEEC00A10EE100A00B20881494800
:100D7000408900EE100AB8EE400ADFED470A20EE87
:100D8000200ABDEEC00A10EE100A00B248814148A8
:100D9000808900EE100AB8EE400ADFED3F0A20EE2F
:100DA000200ABDEEC00A10EE100A00B28881394850
:100DB000C08900EE100AB8EE400ADFED370A20EED7
:100DC000200ABDEEC00A10EE100A00B2C8813448F5
:100DD000007818B901203249087027E0E4B10020FA
:100DE00017E02E4931F91010002901DC00210BE039
:100DF0002A4931F91010B1F57A7F02DD4FF47A718A
:100E000002E0264931F91010244A22F81010411C42
:100E1000C8B20828E5DB09E0002005E000211F4AF0
:100E200022F81010411CC8B20828F7DB1B4803F059
:100E3000ECFC10BD10B503F0A7FADFED1A0A20EEA6
:100E4000200ABCEEC00A10EE100A1749088010BD37
:100E5000FC0A0020640000206800002000007A44A2
:100E600000002042000000000000A04276000020A8
:100E70008F360E3B00C05A45F8080020C6F91B3BD0
:100E800000004843DC0100206200002063000020D5
:100E90005609002006090020CDCCCC3D16090020C3
:100EA0006A0000200000C8425E00002010B5234800
:100EB0000088401C21490880084600880A2190FBD0
:100EC000F1F201FB12001D4908800846008810BBA2
:100ED0009FED1B0A02F0BDF89FED190AFFF7C2FD56
:100EE0009FED170A00F016FB9FED150A02F08CFD2E
:100EF00012484088401C11494880084640880A2111
:100F000090FBF1F201FB12000C4948800846408832
:100F100008B9FFF78FFF04F009FB012002F014FF6E
:100F20009FED080A00F010F89FED060AFFF73AFD62
:100F30000120FFF7C9FE03F0C8FA10BD6C000020C5
:100F40000AD7233C6F12833A10B52DED028BB0EE19
:100F5000408A00F020F800BF2D4840782D490978DC
:100F6000884214D02A4840782A49087000202A492B
:100F700088744FF487712848A0F813102448C16979
:100F80002548C0F815100121244880F8391100BF08
:100F9000BDEC028B10BD22480078FF2804D0204809
:100FA0000078401C1E490870194800781D490978CE
:100FB000884216D0164800781A4908701448007AFA
:100FC00050B11348C07838B111484089124908809F
:100FD0000F488089488004E04FF400400E490880A3
:100FE00048800B4840781049097888420ED008485C
:100FF00040780D4908704FF400400749888001216E
:10100000064880F833110020054908707047000039
:10101000680B00207300002026090020DC0100205E
:1010200072000020700000207100002010B5012027
:10103000A2498870A24890F8000688B91020A049FB
:1010400081F8010600219E4880F80216012180F8EF
:10105000031600F20161FF20FFF799FC012010BD8B
:101060000020FCE710B5002094498870944890F85F
:10107000000688B91020924981F8010600219048A5
:1010800080F80216022180F8031600F20161FF20A9
:10109000FFF77DFC012010BD0020FCE710B50446E1
:1010A00088480078A0421FD0854890F80006C8B94B
:1010B00082480470834804700120814981F8010648
:1010C00001217F4880F8021680F803167B480178DA
:1010D0007B4880F8041600F20161FF20FFF757FCFF
:1010E000012010BD0020FCE70120FAE710B574488C
:1010F00090F8000688B91020714981F80106002196
:101100006F4880F80216072180F8031600F201618B
:10111000FF20FFF73CFC012010BD0020FCE701B5DB
:10112000674890F80006C8B91020654981F80106A3
:101130000021634880F80216052180F803169DF807
:10114000001080F804169DF8011080F8051600F2D2
:101150000161FF20FFF71BFC012008BD0020FCE718
:1011600010B5574890F8000688B91020544981F806
:1011700001060021524880F80216062180F8031665
:1011800000F20161FF20FFF702FC012010BD0020EA
:10119000FCE707B54A4890F8000648BB10204849CC
:1011A00081F801060221464880F80216032180F8E2
:1011B00003169DF8001080F804169DF8011080F8C1
:1011C00005169DF8041080F806169DF8051080F8A5
:1011D00007169DF8081080F808169DF8091080F889
:1011E000091600F20161FF20FFF7D1FB01200EBDBF
:1011F0000020FCE710B5324890F8000688B90120BD
:101200002F4981F8010600212D4880F8021603219C
:1012100080F8031600F20161FF20FFF7B8FB012000
:1012200010BD0020FCE710B5254890F8000688B9ED
:101230000120234981F801060021214880F8021687
:10124000042180F8031600F20161FF20FFF79FFBE5
:10125000012010BD0020FCE710B5194890F80006E9
:1012600088B90120164981F801060021144880F848
:101270000216052180F8031600F20161FF20FFF736
:1012800086FB012010BD0020FCE710B50C4890F84B
:10129000000688B901200A4981F8010600210848A2
:1012A00080F80216022180F8031600F20161FF2087
:1012B000FFF76DFB012010BD0020FCE75609002060
:1012C000DC0100207400002010B504469848B0F9F5
:1012D0004000B0F5AF6F0BDD9548B0F94000B0F5B8
:1012E000C86F05DA0120934948709349087002E0FD
:1012F0000020904948708E48B0F93E00B0F5966FD6
:1013000006DA8C48407818B901208A49087002E052
:101310000020884908708848007801284AD1874809
:10132000C078002853D18248B0F93A0040F26C717D
:10133000884210DD7E48B0F93C0040F24C418842C2
:1013400009DA7B48B0F93E00884204DA7848B0F9FF
:101350004000884217DB7648B0F9400040F26C71DB
:10136000884230DD7248B0F93C0040F24C4188427E
:1013700029DA6F48B0F93E00884224DA6C48B0F9A7
:101380003A0088421FDA6E480088B0F57A7F12DA98
:10139000D4ED000A6A48008800EE100AB8EE400A50
:1013A0009FED681A00EE810ABCEEC00A10EE100A2A
:1013B0006349088062E0FFF739FE00206049088039
:1013C0005D4908705AE000205D49088056E05B489E
:1013D000C078012852D15648B0F93A0040F26C71F9
:1013E000884210DD5248B0F93C0040F24C4188423E
:1013F00009DA4F48B0F93E00884204DA4C48B0F9A7
:101400004000884217DB4A48B0F9400040F26C7156
:10141000884230DD4648B0F93C0040F24C418842F9
:1014200029DA4348B0F93E00884224DA4048B0F94E
:101430003A0088421FDA42480088B0F5967F12DAF7
:10144000D4ED000A3E48008800EE100AB8EE400ACB
:101450009FED3C1A00EE810ABCEEC00A10EE100AA5
:10146000374908800AE0FFF7FDFD00203449088075
:101470003149087002E000203149088010BD10B5E4
:101480002E48C078002844D12948B0F9400040F2E5
:101490004C41884217DA2648B0F93C00884212DAFB
:1014A0002348B0F93E0088420DDA2148B0F93A00ED
:1014B000884208DA2448007838BBFFF79BFE0120F9
:1014C0002149087025E01A48B0F9400040F26C71DB
:1014D00088421BDD1648B0F93C0040F24C4188427E
:1014E00014DA1348B0F93E0088420FDA1048B0F918
:1014F0003A0040F26C71884208DD1348007820B948
:10150000FFF791FE01201049087002E000200E490B
:10151000087010BD10B52DED020B054890F838008D
:1015200020B96846FFF7D0FEFFF7A9FF1CBD0000F9
:10153000FC0A0020760000207A00002056090020D6
:101540007800002000007A447B000020FE4890EDE7
:101550000F0A20EE000AD0ED1A0A20EE200AD0ED84
:101560001E0A20EE200AD0ED0F0A60EEA00A90EDD0
:101570001D1A60EE810A90ED1B1A00EEC10AD0ED33
:10158000100A60EEA00A90ED171A60EE810A90ED45
:101590001E1A00EEC10AD0ED100A60EEA00A90ED0E
:1015A0001D1A60EE810A90ED181A00EE810AD0ED46
:1015B000110A60EEA00A90ED171A60EE810A90ED14
:1015C0001B1A00EE810AD0ED110A60EEA00A90ED20
:1015D0001A1A60EE810A90ED181A00EEC10AD0EDD9
:1015E0000F0A60EEA00A90ED1A1A60EE810A90EDE3
:1015F000211A00EEC10AD0ED0F0A60EEA00A90EDAC
:10160000201A60EE810A90ED1B1A00EE810AD0EDDF
:10161000100A60EEA00A90ED171A60EE810A90EDB4
:10162000211A00EE810AD0ED100A60EEA00A90EDBA
:10163000201A60EE810A90ED181A00EEC10AD0ED72
:10164000120A60EEA00A90ED171A60EE810A90ED82
:101650001B1A00EEC10AD0ED120A60EEA00A90ED4E
:101660001A1A60EE810A90ED181A00EE810AD0ED88
:101670000F0A60EEA00A90ED1D1A60EE810A90ED4F
:10168000211A00EE810AD0ED0F0A60EEA00A90ED5B
:10169000201A60EE810A90ED1E1A00EEC10AD0ED0C
:1016A000110A60EEA00A90ED171A60EE810A90ED23
:1016B000211A00EEC10AD0ED110A60EEA00A90EDE9
:1016C000201A60EE810A90ED181A00EE810AD0ED22
:1016D000120A60EEA00A90ED171A60EE810A90EDF2
:1016E0001E1A00EE810AD0ED120A60EEA00A90EDFB
:1016F0001D1A60EE810A90ED181A00EEC10AD0EDB5
:10170000100A60EEA00A90ED1D1A60EE810A90EDBD
:10171000211A00EEC10AD0ED100A60EEA00A90ED89
:10172000201A60EE810A90ED1E1A00EE810AD0EDBB
:10173000110A60EEA00A90ED1A1A60EE810A90ED8F
:10174000211A00EE810AD0ED110A60EEA00A90ED98
:10175000201A60EE810A90ED1B1A00EEC10AD0ED4E
:10176000120A60EEA00A90ED1A1A60EE810A90ED5E
:101770001E1A00EEC10AD0ED120A60EEA00A90ED2A
:101780001D1A60EE810A90ED1B1A00EE810A6F4867
:10179000D0ED000A6C4890ED1A1A60EE810A90EDC7
:1017A0001E1A00EEC10A6948D0ED000A664890EDA5
:1017B0001D1A60EE810A90ED1B1A00EE810A634843
:1017C000D0ED010A604890ED171A60EE810A90EDA5
:1017D0001E1A00EE810A5D48D0ED010A5A4890EDCC
:1017E0001D1A60EE810A90ED181A00EEC10A5748E2
:1017F000D0ED020A544890ED171A60EE810A90ED80
:101800001B1A00EEC10A5148D0ED020A4E4890ED75
:101810001A1A60EE810A90ED181A00EE810A4B4800
:10182000D0ED000A484890ED1A1A60EE810A90ED5A
:10183000211A00EE810A4548D0ED000A424890ED99
:10184000201A60EE810A90ED1B1A00EEC10A3F4893
:10185000D0ED010A3C4890ED171A60EE810A90ED38
:10186000211A00EEC10A3948D0ED010A364890ED40
:10187000201A60EE810A90ED181A00EE810A3348B2
:10188000D0ED030A304890ED171A60EE810A90ED12
:101890001B1A00EE810A2D48D0ED030A2A4890ED6C
:1018A0001A1A60EE810A90ED181A00EEC10A274854
:1018B000D0ED000A244890ED1D1A60EE810A90EDEB
:1018C000211A00EEC10A2148D0ED000A1E4890ED11
:1018D000201A60EE810A90ED1E1A00EE810A1B4864
:1018E000D0ED020A184890ED171A60EE810A90EDCB
:1018F000211A00EE810A1548D0ED020A124890ED37
:10190000201A60EE810A90ED181A00EEC10A0F4805
:10191000D0ED030A0C4890ED171A60EE810A90EDA5
:101920001E1A00EEC10A0948D0ED030A064890EDE0
:101930001D1A60EE810A90ED181A00EE810A034824
:10194000D0ED010A004803E064090020EC0A002001
:1019500090ED1D1A60EE810A90ED211A00EE810AC9
:10196000FE48D0ED010AFE4890ED201A60EE810A93
:1019700090ED1E1A00EEC10AF848D0ED020AF848B0
:1019800090ED1A1A60EE810A90ED211A00EEC10A5C
:10199000F248D0ED020AF24890ED201A60EE810A7A
:1019A00090ED1B1A00EE810AEC48D0ED030AEC48DA
:1019B00090ED1A1A60EE810A90ED1E1A00EE810A6F
:1019C000E648D0ED030AE64890ED1D1A60EE810A64
:1019D00090ED1B1A00EEC10AF1EE400A90ED160AD6
:1019E00090ED1A1A20EE010A90ED1E1A20EE010A5F
:1019F00090ED161AD0ED1D1A21EE211AD0ED1B1A0A
:101A000001EE610A90ED191AD0ED171A21EE211A94
:101A1000D0ED1E1A01EE610A90ED191AD0ED1D1AD3
:101A200021EE211AD0ED181A01EE210A90ED1C1AB0
:101A3000D0ED171A21EE211AD0ED1B1A01EE210A62
:101A400090ED1C1AD0ED1A1A21EE211AD0ED181AB9
:101A500001EE610A90ED161AD0ED1A1A21EE211A44
:101A6000D0ED211A01EE610A90ED161AD0ED201A80
:101A700021EE211AD0ED1B1A01EE210A90ED191A60
:101A8000D0ED171A21EE211AD0ED211A01EE210A0C
:101A900090ED191AD0ED201A21EE211AD0ED181A66
:101AA00001EE610A90ED1F1AD0ED171A21EE211AEE
:101AB000D0ED1B1A01EE610A90ED1F1AD0ED1A1A33
:101AC00021EE211AD0ED181A01EE210A90ED161A16
:101AD000D0ED1D1A21EE211AD0ED211A01EE210AB6
:101AE00090ED161AD0ED201A21EE211AD0ED1E1A13
:101AF00001EE610A90ED1C1AD0ED171A21EE211AA1
:101B0000D0ED211A01EE610A90ED1C1AD0ED201AD9
:101B100021EE211AD0ED181A01EE210A90ED1F1ABC
:101B2000D0ED171A21EE211AD0ED1E1A01EE210A6E
:101B300090ED1F1AD0ED1D1A21EE211AD0ED181AC2
:101B400001EE610A90ED191AD0ED1D1A21EE211A4D
:101B5000D0ED211A01EE610A90ED191AD0ED201A8C
:101B600021EE211AD0ED1E1A01EE210A90ED1C1A69
:101B7000D0ED1A1A21EE211AD0ED211A01EE210A18
:101B800090ED1C1AD0ED201A21EE211AD0ED1B1A6F
:101B900001EE610A90ED1F1AD0ED1A1A21EE211AFA
:101BA000D0ED1E1A01EE610A90ED1F1AD0ED1D1A3C
:101BB00021EE211AD0ED1B1A01EE210AB0EE001A17
:101BC00020EE010A80EE801A80ED131A90ED0F0AC4
:101BD00020EE000AD0ED190A20EE200AD0ED1E0AF0
:101BE00020EE200AD0ED0F0A60EEA00A90ED1C1A3C
:101BF00060EE810A90ED1B1A00EEC10AD0ED100ACA
:101C000060EEA00A90ED161A60EE810A90ED1E1AA1
:101C100000EEC10AD0ED100A60EEA00A90ED1C1A89
:101C200060EE810A90ED181A00EE810AD0ED110ADB
:101C300060EEA00A90ED161A60EE810A90ED1B1A74
:101C400000EE810AD0ED110A60EEA00A90ED191A9B
:101C500060EE810A90ED181A00EEC10AD0ED0F0A6D
:101C600060EEA00A90ED191A60EE810A90ED211A3B
:101C700000EEC10AD0ED0F0A60EEA00A90ED1F1A27
:101C800060EE810A90ED1B1A00EE810AD0ED100A79
:101C900060EEA00A90ED161A60EE810A90ED211A0E
:101CA00000EE810AD0ED100A60EEA00A90ED1F1A36
:101CB00060EE810A90ED181A00EEC10AD0ED120A0A
:101CC00060EEA00A90ED161A60EE810A90ED1B1AE4
:101CD00000EEC10AD0ED120A60EEA00A90ED191ACA
:101CE00060EE810A90ED181A00EE810AD0ED0F0A1D
:101CF00060EEA00A90ED1C1A60EE810A90ED211AA8
:101D000000EE810AD0ED0F0A60EEA00A90ED1F1AD6
:101D100060EE810A90ED1E1A00EEC10AD0ED110AA4
:101D200060EEA00A90ED161A60EE810A90ED211A7D
:101D300000EEC10AD0ED110A60EEA00A90ED1F1A64
:101D400060EE810A90ED181A00EE810AD0ED120AB9
:101D500060EEA00A90ED161A04E00000EC0A0020E4
:101D60006409002060EE810A90ED1E1A00EE810ADF
:101D7000D0ED120A60EEA00A90ED1C1A60EE810A06
:101D800090ED181A00EEC10AD0ED100A60EEA00A1C
:101D900090ED1C1A60EE810A90ED211A00EEC10A46
:101DA000D0ED100A60EEA00A90ED1F1A60EE810AD5
:101DB00090ED1E1A00EE810AD0ED110A60EEA00A25
:101DC00090ED191A60EE810A90ED211A00EE810A59
:101DD000D0ED110A60EEA00A90ED1F1A60EE810AA4
:101DE00090ED1B1A00EEC10AD0ED120A60EEA00AB7
:101DF00090ED191A60EE810A90ED1E1A00EEC10AEC
:101E0000D0ED120A60EEA00A90ED1C1A60EE810A75
:101E100090ED1B1A00EE810AFE48D0ED000AFE4844
:101E200090ED191A60EE810A90ED1E1A00EEC10ABB
:101E3000F848D0ED000AF84890ED1C1A60EE810ACF
:101E400090ED1B1A00EE810AF248D0ED010AF2482B
:101E500090ED161A60EE810A90ED1E1A00EE810ACE
:101E6000EC48D0ED010AEC4890ED1C1A60EE810AB6
:101E700090ED181A00EEC10AE648D0ED020AE648D5
:101E800090ED161A60EE810A90ED1B1A00EEC10A61
:101E9000E048D0ED020AE04890ED191A60EE810AA0
:101EA00090ED181A00EE810ADA48D0ED000ADA48FF
:101EB00090ED191A60EE810A90ED211A00EE810A68
:101EC000D448D0ED000AD44890ED1F1A60EE810A84
:101ED00090ED1B1A00EEC10ACE48D0ED010ACE48A3
:101EE00090ED161A60EE810A90ED211A00EEC10AFB
:101EF000C848D0ED010AC84890ED1F1A60EE810A6B
:101F000090ED181A00EE810AC248D0ED030AC248CB
:101F100090ED161A60EE810A90ED1B1A00EE810A10
:101F2000BC48D0ED030ABC4890ED191A60EE810A56
:101F300090ED181A00EEC10AB648D0ED000AB64876
:101F400090ED1C1A60EE810A90ED211A00EEC10A94
:101F5000B048D0ED000AB04890ED1F1A60EE810A3B
:101F600090ED1E1A00EE810AAA48D0ED020AAA4896
:101F700090ED161A60EE810A90ED211A00EE810AAA
:101F8000A448D0ED020AA44890ED1F1A60EE810A21
:101F900090ED181A00EEC10A9E48D0ED030A9E4843
:101FA00090ED161A60EE810A90ED1E1A00EEC10A3D
:101FB0009848D0ED030A984890ED1C1A60EE810A0B
:101FC00090ED181A00EE810A9248D0ED010A92486D
:101FD00090ED1C1A60EE810A90ED211A00EE810A44
:101FE0008C48D0ED010A8C4890ED1F1A60EE810AF2
:101FF00090ED1E1A00EEC10A8648D0ED020A86480E
:1020000090ED191A60EE810A90ED211A00EEC10AD6
:102010008048D0ED020A804890ED1F1A60EE810AD8
:1020200090ED1B1A00EE810A7A48D0ED030A7A4837
:1020300090ED191A60EE810A90ED1E1A00EE810AE9
:102040007448D0ED030A744890ED1C1A20EE811AF2
:10205000D0ED1B1AF0EE400A41EE610A90ED160A2F
:1020600090ED1A1A20EE010A90ED1E1A20EE010AD8
:1020700090ED161AD0ED1D1A21EE211AD0ED1B1A83
:1020800001EE610A90ED191AD0ED171A21EE211A0E
:10209000D0ED1E1A01EE610A90ED191AD0ED1D1A4D
:1020A00021EE211AD0ED181A01EE210A90ED1C1A2A
:1020B000D0ED171A21EE211AD0ED1B1A01EE210ADC
:1020C00090ED1C1AD0ED1A1A21EE211AD0ED181A33
:1020D00001EE610A90ED161AD0ED1A1A21EE211ABE
:1020E000D0ED211A01EE610A90ED161AD0ED201AFA
:1020F00021EE211AD0ED1B1A01EE210A90ED191ADA
:10210000D0ED171A21EE211AD0ED211A01EE210A85
:1021100090ED191AD0ED201A21EE211AD0ED181ADF
:1021200001EE610A90ED1F1AD0ED171A21EE211A67
:10213000D0ED1B1A01EE610A90ED1F1AD0ED1A1AAC
:1021400021EE211AD0ED181A01EE210A90ED161A8F
:10215000D0ED1D1A21EE211AD0ED211A01EE210A2F
:1021600090ED161AD0ED201A21EE211AD0ED1E1A8C
:1021700001EE610A90ED1C1AD0ED171A21EE211A1A
:10218000D0ED211A01EE610A90ED1C1AD0ED201A53
:1021900021EE211AD0ED181A01EE210A90ED1F1A36
:1021A000D0ED171A21EE211AD0ED1E1A01EE210AE8
:1021B00090ED1F1AD0ED1D1A21EE211AD0ED181A3C
:1021C00001EE610A90ED191AD0ED1D1A21EE211AC7
:1021D000D0ED211A01EE610A90ED191AD0ED201A06
:1021E00021EE211AD0ED1E1A01EE210A90ED1C1AE3
:1021F000D0ED1A1A21EE211AD0ED211A01EE210A92
:1022000090ED1C1AD0ED201A21EE211AD0ED1B1AE8
:1022100004E00000EC0A00206409002001EE610ADD
:1022200090ED1F1AD0ED1A1A21EE211AD0ED1E1AC8
:1022300001EE610A90ED1F1AD0ED1D1A21EE211A50
:10224000D0ED1B1A01EE210AB0EE001A20EE010AB1
:1022500080EE801A80ED141A90ED0F0A20EE000A2D
:10226000D0ED190A20EE200AD0ED1D0A20EE200A3A
:10227000D0ED0F0A60EEA00A90ED1C1A60EE810A04
:1022800090ED1A1A00EEC10AD0ED100A60EEA00A15
:1022900090ED161A60EE810A90ED1D1A00EEC10A4B
:1022A000D0ED100A60EEA00A90ED1C1A60EE810AD3
:1022B00090ED171A00EE810AD0ED110A60EEA00A27
:1022C00090ED161A60EE810A90ED1A1A00EE810A5E
:1022D000D0ED110A60EEA00A90ED191A60EE810AA5
:1022E00090ED171A00EEC10AD0ED0F0A60EEA00AB9
:1022F00090ED191A60EE810A90ED201A00EEC10AE5
:10230000D0ED0F0A60EEA00A90ED1F1A60EE810A70
:1023100090ED1A1A00EE810AD0ED100A60EEA00AC4
:1023200090ED161A60EE810A90ED201A00EE810AF7
:10233000D0ED100A60EEA00A90ED1F1A60EE810A3F
:1023400090ED171A00EEC10AD0ED120A60EEA00A55
:1023500090ED161A60EE810A90ED1A1A00EEC10A8D
:10236000D0ED120A60EEA00A90ED191A60EE810A13
:1023700090ED171A00EE810AD0ED0F0A60EEA00A68
:1023800090ED1C1A60EE810A90ED201A00EE810A91
:10239000D0ED0F0A60EEA00A90ED1F1A60EE810AE0
:1023A00090ED1D1A00EEC10AD0ED110A60EEA00AF0
:1023B00090ED161A60EE810A90ED201A00EEC10A27
:1023C000D0ED110A60EEA00A90ED1F1A60EE810AAE
:1023D00090ED171A00EE810AD0ED120A60EEA00A05
:1023E00090ED161A60EE810A90ED1D1A00EE810A3A
:1023F000D0ED120A60EEA00A90ED1C1A60EE810A80
:1024000090ED171A00EEC10AD0ED100A60EEA00A96
:1024100090ED1C1A60EE810A90ED201A00EEC10AC0
:10242000D0ED100A60EEA00A90ED1F1A60EE810A4E
:1024300090ED1D1A00EE810AD0ED110A60EEA00A9F
:1024400090ED191A60EE810A90ED201A00EE810AD3
:10245000D0ED110A60EEA00A90ED1F1A60EE810A1D
:1024600090ED1A1A00EEC10AD0ED120A60EEA00A31
:1024700090ED191A60EE810A90ED1D1A00EEC10A66
:10248000D0ED120A60EEA00A90ED1C1A60EE810AEF
:1024900090ED1A1A00EE810AFE48D0ED000AFE48BF
:1024A00090ED191A60EE810A90ED1D1A00EEC10A36
:1024B000F848D0ED000AF84890ED1C1A60EE810A49
:1024C00090ED1A1A00EE810AF248D0ED010AF248A6
:1024D00090ED161A60EE810A90ED1D1A00EE810A49
:1024E000EC48D0ED010AEC4890ED1C1A60EE810A30
:1024F00090ED171A00EEC10AE648D0ED020AE64850
:1025000090ED161A60EE810A90ED1A1A00EEC10ADB
:10251000E048D0ED020AE04890ED191A60EE810A19
:1025200090ED171A00EE810ADA48D0ED000ADA4879
:1025300090ED191A60EE810A90ED201A00EE810AE2
:10254000D448D0ED000AD44890ED1F1A60EE810AFD
:1025500090ED1A1A00EEC10ACE48D0ED010ACE481D
:1025600090ED161A60EE810A90ED201A00EEC10A75
:10257000C848D0ED010AC84890ED1F1A60EE810AE4
:1025800090ED171A00EE810AC248D0ED030AC24846
:1025900090ED161A60EE810A90ED1A1A00EE810A8B
:1025A000BC48D0ED030ABC4890ED191A60EE810AD0
:1025B00090ED171A00EEC10AB648D0ED000AB648F1
:1025C00090ED1C1A60EE810A90ED201A00EEC10A0F
:1025D000B048D0ED000AB04890ED1F1A60EE810AB5
:1025E00090ED1D1A00EE810AAA48D0ED020AAA4811
:1025F00090ED161A60EE810A90ED201A00EE810A25
:10260000A448D0ED020AA44890ED1F1A60EE810A9A
:1026100090ED171A00EEC10A9E48D0ED030A9E48BD
:1026200090ED161A60EE810A90ED1D1A00EEC10AB7
:102630009848D0ED030A984890ED1C1A60EE810A84
:1026400090ED171A00EE810A9248D0ED010A9248E7
:1026500090ED1C1A60EE810A90ED201A00EE810ABE
:102660008C48D0ED010A8C4890ED1F1A60EE810A6B
:1026700090ED1D1A00EEC10A8648D0ED020A864888
:1026800090ED191A60EE810A90ED201A00EEC10A51
:102690008048D0ED020A804890ED1F1A60EE810A52
:1026A00090ED1A1A00EE810A7A48D0ED030A7A48B2
:1026B00090ED191A60EE810A90ED1D1A00EE810A64
:1026C0007448D0ED030A744890ED1C1A60EE810A3C
:1026D00090ED1A1A00EEC10AF1EE400A90ED160ACA
:1026E00090ED1A1A20EE010A90ED1E1A20EE010A52
:1026F00090ED161AD0ED1D1A21EE211AD0ED1B1AFD
:1027000001EE610A90ED191AD0ED171A21EE211A87
:10271000D0ED1E1A01EE610A90ED191AD0ED1D1AC6
:1027200021EE211AD0ED181A01EE210A90ED1C1AA3
:10273000D0ED171A21EE211AD0ED1B1A01EE210A55
:1027400090ED1C1AD0ED1A1A21EE211AD0ED181AAC
:1027500001EE610A90ED161AD0ED1A1A21EE211A37
:10276000D0ED211A01EE610A90ED161AD0ED201A73
:1027700021EE211AD0ED1B1A01EE210A90ED191A53
:10278000D0ED171A21EE211AD0ED211A01EE210AFF
:1027900090ED191AD0ED201A21EE211AD0ED181A59
:1027A00001EE610A90ED1F1AD0ED171A21EE211AE1
:1027B000D0ED1B1A01EE610A90ED1F1AD0ED1A1A26
:1027C00021EE211AD0ED181A01EE210A90ED161A09
:1027D000D0ED1D1A21EE211AD0ED211A01EE210AA9
:1027E00090ED161AD0ED201A21EE211AD0ED1E1A06
:1027F00001EE610A90ED1C1AD0ED171A21EE211A94
:10280000D0ED211A01EE610A90ED1C1AD0ED201ACC
:1028100021EE211AD0ED181A01EE210A90ED1F1AAF
:10282000D0ED171A21EE211AD0ED1E1A01EE210A61
:1028300090ED1F1AD0ED1D1A21EE211AD0ED181AB5
:1028400001EE610A90ED191AD0ED1D1A21EE211A40
:10285000D0ED211A01EE610A90ED191AD0ED201A7F
:1028600021EE211AD0ED1E1A01EE210A90ED1C1A5C
:10287000D0ED1A1A21EE211AD0ED211A01EE210A0B
:1028800090ED1C1AD0ED201A21EE211AD0ED1B1A62
:1028900004E00000EC0A00206409002001EE610A57
:1028A00090ED1F1AD0ED1A1A21EE211AD0ED1E1A42
:1028B00001EE610A90ED1F1AD0ED1D1A21EE211ACA
:1028C000D0ED1B1A01EE210AB0EE001A20EE010A2B
:1028D00080EE801A80ED151A704710B50021002394
:1028E000D94C23700AE0D94BD74C24781B5D0B449C
:1028F000D9B2D54B1B785B1CD34C2370D44B1B78BF
:102900005B1ED14C2478A342EDDCD04BD04C247814
:10291000234413F8013C8B4200D010BD0022CB4B66
:10292000DB78312B48D1C94B9B79C84C647943EA99
:1029300004231BB200EE103AB8EEC00ADFEDC50A60
:1029400080EE201AC44B83ED0F1AC04B1B7ABF4C8C
:10295000E47943EA04231BB200EE103AB8EEC00A51
:10296000DFEDBC0A80EE201ABB4B83ED101AB74B8B
:102970009B7AB64C647A43EA04231BB200EE103A09
:10298000B8EEC00ADFEDB30A80EE201AB24B83ED39
:10299000111AAE4B1B7BAD4CE47A43EA04231BB205
:1029A00000EE103AB8EEC00ADFEDAA0A80EE201A57
:1029B000A94B83ED121A73E0A44BDB78322B6FD155
:1029C000A24BDB79A14CA47943EA04231BB200EEAD
:1029D000103AB8EEC00AB1EE400ADFED9E0A80EE72
:1029E000201A9D4B83ED041A984B5B7A974C247AFE
:1029F00043EA04231BB200EE103AB8EEC00ADFED42
:102A0000950A80EE201A944B83ED031A8F4BDB7AE4
:102A10008E4CA47A43EA04231BB200EE103AB8EEBF
:102A2000C00ADFED8C0A80EE201A8B4B83ED051A6D
:102A3000864B5B7B854C247B43EA04231BB200EE70
:102A4000103AB8EEC00AB1EE400ADFED820A80EE1D
:102A5000201A814B83ED071A7C4BDB7B7B4CA47BDC
:102A600043EA04231BB200EE103AB8EEC00ADFEDD1
:102A7000790A80EE201A784B83ED061A734B5B7C43
:102A8000724C247C43EA04231BB200EE103AB8EEE9
:102A9000C00ADFED700A80EE201A6F4B83ED081A32
:102AA00000236E4C238021460988B1F57A7F08DA2D
:102AB000214609880144224611800121664A51704D
:102AC00002E00021644A517000BF26E710B50446B9
:102AD0006348007838B9AA2C05D1012060490870F4
:102AE0005A48047074E05E480078012809D1612CCE
:102AF00001D0FF2C05D10220594908705348447079
:102B000066E057480078022805D103205449087030
:102B10004E4884705CE05248007803280CD1FA2CAF
:102B20000ADA04204E4908704848C4704D480470C1
:102B300000204D4908704BE04948007804281BD11B
:102B400048480078002817DD46480078401E45496F
:102B500008704548007844490978491C424A117078
:102B6000001D3A490C543F48007810B905203C49F3
:102B70000870374804702BE03948007805280DD1DB
:102B80000620374908703848007837490978491CC9
:102B9000354A1170001D2D490C5419E03048007859
:102BA000062812D100202E4908702F480078001DF9
:102BB00026490C542C480078401D2C4908701E20D2
:102BC000FFF78BFEFEF7C2FC02E0002024490870EC
:102BD00010BD214880ED160AC0ED170A80ED181AC5
:102BE000C0ED191A80ED1A2AC0ED1B2A80ED1C3A9F
:102BF000C0ED1D3A80ED1E4AC0ED1F4A80ED205AFF
:102C0000C0ED215A20EE006A00EEA06A01EE016AD2
:102C1000174880ED006A21EEA16A02EE026A02EE18
:102C2000A26A80ED016A23EE036A03EEA36A04EE52
:102C3000046A80ED026A24EEA46A05EE056A05EED8
:102C4000A56A80ED036A70477F000020EC09002030
:102C50007C0000200000C8426409002080000020A1
:102C60008400002082000020830000207E000020DD
:102C7000EC0A002010B501F013FE0120FD4981F897
:102C8000380010BD10B501F0E7FA642001F0D8FA61
:102C900001F0BAFB01F046FC642001F0D1FA4FF4D8
:102CA000E13001F036FFF44802F02DF8F24802F06E
:102CB00024F9F14802F042FAEF4802F028FB6420C0
:102CC00001F0BEFAFFF7D6FF01F00AFB642001F025
:102CD000B7FAFDF72BFB4FF4487001F0B1FA01F0A1
:102CE000D8F801F007FFDFEDE55AB1EE005ADFED4D
:102CF000E44A9FEDE44AF1EE003AB1EE003ADFED2E
:102D0000DF2A9FEDDF2AF1EE001A9FEDDC1ADFEDDE
:102D1000DC0A9FEDDB0AFFF75CFF012010BD40F6E7
:102D2000C411884203DDD8490978032903DCD64958
:102D300009780A290DD10021D34A1170CD49B1F883
:102D40004E10491CCB4AA2F84E10012182F85010B7
:102D500012E0B0F5967F0FDD40F6B83188420BDA0D
:102D600002B2C449891CC84B1B7821F81320C649FC
:102D70000978491CC44A1170704738B50446C3A08D
:102D800000680090C2484068C149086001F02DFA0F
:102D9000BF494860084640680968401A40F6C411B7
:102DA000884202D90020BB490870BA4801780078EF
:102DB000401CB84A1070B84844541046007819288E
:102DC0007ED1182011460870B34800780F2878D1BA
:102DD000B148007E38B1B048007EB04A12781DF884
:102DE00002108842F3D10020AA490870AA4840780E
:102DF000A949897801F0070140EA01209D498882AC
:102E0000A548C0788006400DA349897840EAE100D2
:102E10009849C882A0484079C007400D9E49097969
:102E200040EA81009C49C97840EAA1109149088391
:102E3000994880790007400D9749497940EA610037
:102E40008C4948839448C0794006400D924989795D
:102E500040EA2110874988838F48407A8007400DD7
:102E60008D49097A40EA41008B49C97940EAE1106D
:102E70008049C8838848807AC006400D8649497ACF
:102E800040EAA1007B4908848348C07AC000824997
:102E9000897A40EA6111774841847F48007B7E4906
:102EA000497B01F0070140EA0120724988847A4891
:102EB000807B8006400D7849497B40EAE10001E0D3
:102EC00072E067E06B49C8847348007CC007400D1E
:102ED0007149C97B40EA81006F49897B40EAA110B2
:102EE000644908856C48407C0007400D6A49097CAC
:102EF00040EA61005F4948856748807C4006400D94
:102F00006549497C40EA21105A4988856248007D1C
:102F10008007400D6049C97C40EA41005E49897CD8
:102F200040EAE1105349C8855B48407DC006400D2A
:102F30005949097D40EAA1004E4908865648807DDE
:102F4000C0005549497D40EA61114A4841865248CE
:102F5000C07D484981F83400084690F8340000F0FC
:102F6000080040B90846B0F84E00401CA1F84E00D9
:102F7000022081F8500049480078401C47490870F9
:102F80000878C11700EB91718910A0EB8101434AC9
:102F9000117009E0002005E03F4A411C515C1154CA
:102FA000411CC8B21828F7DB38BD10B50446D4ED73
:102FB000000A3B48008800EE100AB8EE400A9FED78
:102FC000391A00EE810ABCEEC00A10EE100A34492C
:102FD000088008460088B0F57A7F39DD0020088037
:102FE0002448B0F84E002349C8860846C08E0528FC
:102FF00003DA012081F8380003E000201D4981F840
:1030000038001C4890F83800C8B11A480078D8B980
:1030100025480078401C24490870087800EBD071DE
:103020004910A0EB4101204A117010460078012898
:1030300002D101F0B6FC07E001F032FC04E00D48DB
:1030400090F850000B49087000200A49A1F84E0082
:1030500010BD10B52DED020B6846FFF7A6FF054821
:1030600090F83800002879D102480078012828D14A
:10307000002023E0FC0A002020A107006666E63F4E
:1030800000000000CDCC8C3F8800002004142434C4
:103090008C000020940000204E0B002095000020A2
:1030A0009800002000007A4496000020344931F84E
:1030B0001020383121F81020411CC8B20A28F5DB55
:1030C00023E02F48801E007802281ED100201AE03D
:1030D0002B49123131F91010A1F5806100EE101A60
:1030E000F8EEC00A9FED270A9FED271A01EE200A8D
:1030F000BDEEC00A10EE101A0AB22149383121F88B
:103100001020411CC8B20A28E2DB1D48801EB0F91D
:103110004200B0F5966F06DD1948801EB0F94200F6
:10312000B0F5AF6F0DDB1648801EB0F94200B0F568
:10313000C86F0DDD1248801EB0F94200B0F5E16F96
:1031400006DA01200E49891E81F8390016E005E0F3
:1031500000200B49891E81F839000FE00120084941
:10316000891E81F83900002006E000220449383128
:1031700021F81020411CC8B20A28F6DB1CBD000053
:10318000FE0A00200080BB442FDD243FF0EE400A01
:10319000F5EEC00AF1EE10FA02DBB0EE600A7047FD
:1031A000B1EE600AFBE700B5B0EE403AB0EE602A3F
:1031B000B5EEC03AF1EE10FA07D1B5EEC02AF1EE45
:1031C00010FA02D19FEDFC1A99E0B0EE430AFFF726
:1031D000DDFFF0EE403AB0EE420AFFF7D7FFF0EE27
:1031E000402AF4EEE23AF1EE10FA02D283EEA24A5D
:1031F00001E082EEA34A9FEDF10AB4EEC04AF1EE7F
:1032000010FA02D2F0EE441A2DE0DFEDED0AB6EE30
:10321000000A14EE200AF0EE404ABDEEE40A10EE79
:10322000100A00EE100AB8EEC00A34EEC00AF0EE42
:10323000404AE44901EB800191ED000AF0EE401AAA
:10324000E04A411C02EB810191ED000A114601EBBD
:103250008001D1ED000A70EE600AB0EE610A00EE66
:10326000A40AF0EE401AF4EEE32AF1EE10FA20DDA3
:10327000B5EEC02AF1EE10FA0ADBB5EEC03AF1EE77
:1032800010FA02DBB0EE611A39E0B1EE611A36E0F5
:103290009FEDCD1AB5EEC03AF1EE10FA04DB31EE37
:1032A000610AB0EE401A2AE031EEC10AB0EE401ACF
:1032B00025E0B5EEC03AF1EE10FA10DB9FEDC31A2F
:1032C000B5EEC02AF1EE10FA04DB31EE610AB0EE81
:1032D000401A14E031EE210AB0EE401A0FE09FEDE3
:1032E000BC1AB5EEC02AF1EE10FA04DB31EE210A69
:1032F000B0EE401A03E031EE610AB0EE401AB0EED3
:10330000410A00BD00B5B0EE405AF0EE605AF0EE52
:10331000450AB0EE650AFFF746FF00BDF0EE400A31
:10332000F6EE001A60EEA11AB0EE611AB0EE600A75
:1033300010EE100AA749A1EB600000EE100A21EE82
:10334000002AF7EE081A42EE401A61EE801AB0EE3B
:10335000610A21EE002AF7EE081A42EE401A61EEE9
:10336000801AB0EE610A704700B5F0EE402AB0EE68
:10337000620AFFF7D3FF20EE220A00BD10B52DED43
:103380000A8BB0EE409AF0EE609A9FED930B53ECEF
:10339000102B51EC190B0AF0FDF918D29FED900B90
:1033A00053EC102B51EC190B0AF071F941EC1B0B8B
:1033B0009FED8D0B53EC102B0AF0C2F841EC1A0B69
:1033C00053EC192B0AF063F941EC180B17E09FED51
:1033D000840B53EC102B51EC190B0AF058F941EC0B
:1033E0001B0B9FED810B53EC102B0AF04DF941ECB8
:1033F0001A0B53EC192B0AF04AF941EC180B9FED0C
:10340000760B53EC102B51EC180B0AF0C3F920D2B9
:103410009FED770B53EC102B51EC180B0AF090F842
:1034200041EC1C0B9FED740B53EC102B0AF02FF9A1
:1034300041EC1B0B9FED6E0B53EC102B0AF080F848
:1034400041EC1A0B53EC182B0AF021F941EC180B44
:103450001FE09FED670B53EC102B51EC180B0AF09B
:1034600010F941EC1C0B9FED660B53EC102B0AF08E
:103470000EF941EC1B0B9FED5E0B53EC102B0AF089
:103480005FF841EC1A0B53EC182B0AF000F941ECF1
:10349000180BB0EE480AF0EE680ABDEC0A8B10BDBE
:1034A00010B52DED068BB0EE408AF0EE608A012457
:1034B0009FED550B53EC102B51EC180B0AF082F9D1
:1034C0000AD89FED510B53EC102B51EC180B0AF05E
:1034D000D8F841EC180BA41E20460AF04AF941EC3A
:1034E000190BB0EE480AF0EE680AFFF747FFB0EE9E
:1034F00040AAF0EE60AA53EC192B51EC1A0B0AF01B
:10350000C6F841EC100BBDEC068B10BD10B52DEDCF
:10351000088BB0EE408AF0EE608A01249FED3C0BF0
:1035200053EC102B51EC180B0AF00AF841EC180B75
:103530009FED350B53EC102B51EC180B0AF042F9B0
:103540000AD8A41E9FED300B53EC102B51EC180B36
:103550000AF097F841EC180B20460AF00AF941EC02
:103560001A0BB0EE480AF0EE680AFFF799FFB0EECA
:1035700040BAF0EE60BA53EC1A2B51EC1B0B0AF078
:1035800086F841EC190B0AF035F900EE100ABDEC93
:10359000088B10BDF0EE401AF4EEE01AF1EE10FACE
:1035A0003ADD31EEC10AB4EEE00AF1EE10FA3CD297
:1035B000B0EE600A39E00000000000008180803B2E
:1035C0000000804350DA0008DB0F4940DB0FC93FA1
:1035D000DB0FC9BFDF59375F0000000000000000AB
:1035E000000000602FF0D93F00000060305FF43F22
:1035F000000000000000F03F000000C0CCCCCCBFB9
:10360000000000C0CCCCCC3FF1D4C853FB21094012
:10361000F1D4C853FB21F93F31EE810AB4EEE00A40
:10362000F1EE10FA01DDB0EE600A7047F0EE401ADC
:10363000B1EE412A32EE202AB4EEE12AF1EE10FA80
:1036400009D231EE202AB4EEE12AF1EE10FA02DDC1
:10365000B0EE600A01E0B0EE610A7047F0EE402A79
:10366000B5EEC01AF1EE10FA02DDB0EE410A01E04B
:10367000B1EE410AB6EE003A22EE033A23EE213AC9
:10368000B4EEC30AF1EE10FA06D29FEDD40A20EE92
:10369000800AF0EE400A4DE0B5EEC01AF1EE10FAE5
:1036A00002DDB0EE410A01E0B1EE410A22EE213A1C
:1036B000B4EEC30AF1EE10FA06D29FEDC90A20EE6D
:1036C000800AF0EE400A35E0B5EEC01AF1EE10FACD
:1036D00002DDB0EE410A01E0B1EE410AB4EEE10ACA
:1036E000F1EE10FA06D2B6EE000A20EE800AF0EEF5
:1036F000400A1FE0B5EEC01AF1EE10FA02DDB0EE9E
:10370000410A01E0B1EE410AB0EE003A21EE833AFF
:10371000B4EEC30AF1EE10FA06D29FEDB20A20EE23
:10372000800AF0EE400A05E09FEDAF0A20EE800A25
:10373000F0EE400A9FEDAD0A20EE800A20EE223A1C
:10374000F7EE003A83EE830AB7EE003A30EE030A52
:10375000F7EE003A83EE803A90ED000A71EE403ABF
:1037600090ED000A03EE230A80ED000A90ED000AB6
:10377000B1EE423A23EE213AB4EEC30AF1EE10FA6A
:1037800004D8B1EE420A20EE210A0DE090ED000AC5
:1037900022EE213AB4EEC30AF1EE10FA02DD22EE77
:1037A000210A01E090ED000A80ED000A90ED000A88
:1037B00031EE400A704710B52DED028BB0EE408A15
:1037C000F0EE608A9FED8A0B53EC102B51EC180B36
:1037D00009F0F8FF0CD29FED880B53EC102B51EC45
:1037E000180B09F04EFF41EC100BBDEC028B10BD25
:1037F0009FED830B53EC102B51EC180B09F0CAFF13
:103800000AD29FED7D0B53EC102B51EC180B09F0F5
:1038100097FE41EC100BE8E7B0EE480AF0EE680ABC
:10382000E3E730B505460C46F0EE403AD5ED000A28
:1038300060EEA00A94ED001AD4ED001A41EE210AC0
:10384000B0EE600AFFF790FDB0EE403AB5EEC03A38
:10385000F1EE10FA02D81FEDA80A09E0B4EEE33A3F
:10386000F1EE10FA02DDB0EE630A01E0B0EE430AB9
:10387000B0EE404AB5EEC03AF1EE10FA06D11FEDB7
:10388000B20A83ED000A82ED000A0FE084EE030A1B
:10389000D5ED000A20EE200A82ED000A84EE030A2C
:1038A000D4ED000A20EE200A83ED000A30BDF0EED0
:1038B000400A0B7802EB8303C3ED000A0B785B1C14
:1038C0000B700B78834201DB00230B700B7802EB4B
:1038D000830393ED000A704700B50246B0EE403A0C
:1038E0000B46F7EE000A43EE430AB0EE600AFFF71C
:1038F0003BFDD2ED000A20EE200AD2ED010A00EED7
:10390000C30A83ED000AF7EE000A43EE430AB0EE65
:10391000600AFFF729FDD2ED010A20EE200AD2ED60
:10392000000A00EE830A83ED010A00BD90ED000A53
:10393000D1ED010A20EE200AD0ED010A91ED001A26
:1039400000EEC10A704790ED000AD1ED000A20EEAA
:10395000200AD0ED010A91ED011A00EE810A7047AC
:1039600090ED010AD1ED020A20EE200AD0ED020A04
:1039700091ED011A00EEC10A82ED000A90ED020AF3
:10398000D1ED000A20EE200AD0ED000A91ED021AD6
:1039900000EEC10A82ED010A90ED000AD1ED010AA4
:1039A00020EE200AD0ED010A91ED001A00EEC10AC6
:1039B00082ED020A704790ED000AD1ED000A20EE78
:1039C000200AD0ED010A91ED011A00EE810AD0ED36
:1039D000020A91ED021A00EE810A70479A99993F06
:1039E000CDCC4C3FCDCC4C3ECDCCCC3DC3F5C8402E
:1039F000000000000080664000000000008076406B
:103A000000000000008066C008B5C648D0ED000A7E
:103A10009FEDC51AF4EEC10AF1EE10FA0BD2D0ED0B
:103A2000000AB7EE001A70EE810AC0ED000A01200C
:103A3000BE49887002E00020BC498870B948D0EDCA
:103A4000010A9FEDB91AF4EEC10AF1EE10FA0BD299
:103A5000D0ED010AB7EE001A70EE810AC0ED010A3E
:103A600001208DF8000002E000208DF80000AD4834
:103A7000D0ED020A9FEDAC1AF4EEC10AF1EE10FA95
:103A80000BD2D0ED020AB7EE001A70EE810AC0ED3B
:103A9000020A01208DF8010002E000208DF80100EB
:103AA0009DF8000030B19DF8010018B101209F4938
:103AB000C87002E000209D49C87008BD30B50022E2
:103AC0000024C5788B1F9D4200D030BD002306E046
:103AD000C55C1544EAB2A518ECB25D1CEBB28D1EB4
:103AE0009D42F5DC431813F8023C934204D143187D
:103AF00013F8013CA34200D0E7E78378512B38D17B
:103B000003795BB94379894D6B7183795BB2AB7192
:103B1000C3795BB2EB71037A2B7183E00379012BDC
:103B200012D14379814D2B72C3886B810389AB819C
:103B3000837A2B719FED7E0A7A4B83ED010A2B4627
:103B40001B785B1C2B706DE00379022B6AD14379E3
:103B5000764DAB73C3882B8203896B824389AB821A
:103B60008389EB82C3892B83038A6B83837C2B71CC
:103B700058E08378342B0DD1D0F807306B4DEB61D2
:103B80009FED6B0A674B83ED020A2B465B785B1C4B
:103B90006B7047E08378012B0DD18388634D2B86B2
:103BA000C3886B860389AB864389EB8683892B8721
:103BB000C3896B8736E08378042B33D1B0F90430A6
:103BC00000EE103AB8EEC00ADFED5A0A20EE200AE5
:103BD000564B83ED080AB0F9063000EE103AB8EE05
:103BE000C00ADFED540A20EE200A504B83ED090A8B
:103BF000B0F9083000EE103AB8EEC00ADFED4D0A19
:103C000020EE200A494B83ED0A0AB0F90A3000EE93
:103C1000103AB8EEC00ADFED470A20EE200A434B07
:103C200083ED0B0A00BF50E710B504464248007808
:103C300038B9AA2C05D101203F4908703F480470CB
:103C40006FE03D480078012809D1612C01D0FF2C9C
:103C500005D10220384908703848447061E0364880
:103C60000078022805D10320334908703348847056
:103C700057E03148007803280CD1FA2C0ADA0420E6
:103C80002D4908702D48C4702D48047000202D491E
:103C9000087046E028480078042819D128480078A0
:103CA000002815DD26480078401E25490870254863
:103CB000007824490978491C224A1170001D1F49C7
:103CC0000C541F48007840BB05201B49087028E0B1
:103CD0001948007805280DD10620174908701948A1
:103CE000007818490978491C164A1170001D1349BB
:103CF0000C5416E01048007806280FD100200E4919
:103D0000087010480078001D0C490C540D480078CC
:103D1000401DC1B20948FFF7D1FE02E0002006496C
:103D2000087010BDD80B00200000FA43680B00207B
:103D30000000000017B7D1389C000020A40B002021
:103D40009A0000209B0000200146D54800780028FA
:103D50007ED00022D24B1A70D24A1288C832D14B80
:103D60001A80D14A127DD14B5A76CF4AD37DCF4AA1
:103D70009376CD4A9369CD4AC2F81B30CA4AD369BB
:103D8000CA4AC2F81F30C84A526A0A2392FBF3F3A8
:103D9000C64AC2F82330C44A126B0A2392FBF3F2DC
:103DA00013B2C24AA2F82730BF4A526B0A2392FBD1
:103DB000F3F213B2BD4AA2F82930BB4A926B0A2330
:103DC00092FBF3F213B2B94AA2F82B30B64AB2F81A
:103DD0004C2000EE102AB8EE400ADFEDB50A20EEC6
:103DE000200ABCEEC00A10EE100A08B9002204E056
:103DF000C82801D9C82200E002461046AB4A82F822
:103E00002D00A94A526C00EE102AB8EE400ADFEDF0
:103E1000A80A20EE200ABCEEC00A10EE100A08B96B
:103E2000002204E0C82801D9C82200E0024610465A
:103E30009E4A82F82E009C4AD26A00EE102AB8EE02
:103E4000400ADFED9B0A20EE200ABCEEC00A00E02B
:103E500012E010EE100A08B9002204E0C82801D9C7
:103E6000C82200E002461046904A82F82F00012343
:103E7000904A82F8213100BF704710B50E218E485C
:103E800000F0C2FE10BD10B50E218C4800F0BCFE43
:103E900010BD10B5642000F0D3F94FF4165000F0B7
:103EA00038FE322000F0CCF91C21854800F0ACFE31
:103EB000642000F0C5F94FF4964000F02AFE32204D
:103EC00000F0BEF91C217E4800F09EFE642000F048
:103ED000B7F94FF4164000F01CFE322000F0B0F9A4
:103EE0001C21774800F090FE642000F0A9F94FF4FF
:103EF000E13000F00EFE142000F0A2F90B21714811
:103F000000F082FE142000F09BF90B216E4800F0B7
:103F10007BFE142000F094F90B216C4800F074FE35
:103F2000142000F08DF90B21694800F06DFE14207B
:103F300000F086F90B21674800F066FE142000F0BF
:103F40007FF90B21644800F05FFE142000F078F93F
:103F5000FFF793FF10BD10B50146002000225F4B14
:103F60001B782BB9B52903D101235C4C237095E054
:103F70005A4B1B78012B05D1622903D10223574CE0
:103F800023708BE0554B1B78022B05D10323534C38
:103F90002370534B197081E0504B1B78032B05D1D4
:103FA00004234E4C23704F4B197077E04B4B1B781A
:103FB000042B05D10523494C23704B4B19706DE040
:103FC000464B1B78052B10D10623444C2370464BDF
:103FD0001B7803EB0123454C238023461B88622B6F
:103FE0005CDB00233D4C237058E03C4B1B78062BD8
:103FF00054DB3A4B1B789B1F3C4C2488A41CA342E7
:104000000ADA364B1B789B1F274CE154334B1B7845
:104010005B1C324C237041E0314B1B780344D8B217
:104020001318DAB22F4B1B780344D8B21318DAB244
:104030002E4B1B780344D8B21318DAB22B4B1B88D3
:1040400000EB1323D8B21318DAB2002307E0164CA2
:10405000E45C0444E0B21418E2B25C1CE3B2234C0A
:104060002488A342F3DB104B204C24881B5D834241
:1040700011D10D4C1D4B1B885B1CE35C93420AD194
:10408000174B1B78012B06D1164B1B78072B02D13F
:104090000123034C23700023104C237010BD00003B
:1040A0009E000020A0000020E40B00202609002034
:1040B0000AD7233CDC010020A2000020B000002031
:1040C000DA0000200B010020160100202101002051
:1040D0002C01002037010020420100205301002064
:1040E0004D0100204E0100204F0100205001002012
:1040F000704700BFFEE700BFFEE700BFFEE7704766
:10410000704710B5802003F0C4FE10B1802003F08A
:1041100016FF10BD10B500F01BFC10BD704710B5A8
:104120000121114807F0ABFD28B101210E4807F02D
:1041300003FEFCF7BBFE10BD10B500F0ADFD10BDD9
:1041400010B500F09EFE10BD10B500F0BBFF10BD15
:1041500010B501F0A0F810BD10B501F0B0F910BD18
:1041600010B500F071FC10BD001400407FB568462A
:1041700004F0C1FD4FF47A710198B0FBF1F4E4084A
:104180002146B1F1807F00D31DE021F07F40401E29
:104190004FF0E022506150170F22002807DA130772
:1041A0001E0E314B00F00F052D1F5E5503E0130767
:1041B0001D0E2E4B1D5400BF00204FF0E0229061D9
:1041C0000720106100BF6FF0040001F095FB7FBD78
:1041D0002748D0E900305A1C40F100002449C1E9C9
:1041E0000020704722480068704710B500BF204A81
:1041F00011684FF0E02252694FF0E0239B69D21A18
:104200004FF47A735A434FF0E0235B69B2FBF3F249
:1042100001EB4103C3EBC11302EBC300144C18CCF8
:104220004B402343E3D110BD30B50446FFF7DDFF1B
:10423000054600BFFFF7D9FF401BA042FAD330BDAF
:1042400010B5044603E04FF47A70FFF7EDFF201E2F
:10425000A4F10104F7D110BD10B54FF4806001F056
:1042600099FAFFF783FF10BD18ED00E000E400E0CD
:104270005801002000B58FB0684602F096FD01217C
:10428000880504F050FE00BF564803F0ABF8002844
:10429000FAD10090544801905448029000200390B5
:1042A00032200490002005904FF48060069040007A
:1042B00007908000089000010A90401209900020A9
:1042C0000B9001200C9000200D900E9069464548FF
:1042D00002F015FC0121434802F078FD0FB000BD4B
:1042E00000B58DB001A801F009FC0121042004F003
:1042F0001AFE0121080204F0FCFEFFF7BBFF0320B9
:104300008DF8300020200B9000208DF833000BA991
:10431000374803F0B9FE0020099007904FF4803031
:10432000089000200A9007A801F0F2FB00200190FD
:104330008DF8080001208DF80900002003900590F9
:1043400001208DF8180001A927484C3801F00DFB19
:10435000072301220F2124484C3801F09EFD012142
:1043600021484C3801F077FF01211F484C3801F0FB
:1043700080FC01211C484C3801F047FF1A484C389A
:1043800001F057FE0DB000BD9FED1A0AF0EE400A95
:10439000002010E0154931F8101000EE101AB8EEA8
:1043A000401ADFED151AB0EE600A01EE210AF0EEB8
:1043B000400A411CC8B23228ECDB9FED101A80EE97
:1043C000810A9FED0F1A20EE010AB2EE061A20EEC6
:1043D000010AF7EE001A80EE211A9FED0A0A21EE7B
:1043E000000A7047106402404C200140480C002035
:1043F00000080240000000000AD7A33C00008045EE
:1044000000404E456F12833A1CB5684603F0E7FE44
:104410000121102004F087FD01208DF804008DF8A3
:10442000070000208DF8060002208DF80500072007
:1044300000906946384803F027FE01208DF80400FB
:104440008DF8060002208DF8050080200090694656
:10445000314803F019FE02212F4804F04BF80121E6
:104460002D4804F047F804212B4804F043F880213C
:10447000294804F03FF81CBD00F0010119B10221E8
:10448000254A118302E00221234A518300F00201F0
:1044900019B10121204A118302E001211E4A5183F2
:1044A00000F0040119B104211B4A118302E0042128
:1044B000194A518300F0080119B18021164A51832D
:1044C00002E08021144A1183704700B500201DE0EE
:1044D000124931F81010124A1256914204DA0121A1
:1044E000814019438BB202E0012181408B430B498B
:1044F00031F81010491C89B2084A22F8101014290A
:1045000002DB002122F81010411CC8B20428DFDBB6
:104510001846FFF7B1FF00BD001002406401002003
:104520006001002030B58BB00025D44C01A803F009
:1045300056FE08A805F063F903A805F09CFF012CBE
:1045400001D8012004E0CE48844200D900E0204692
:1045500004460121082004F0A9FD0121022004F0F5
:10456000C8FD0121084604F0C4FD0121152004F016
:10457000DAFC0C20019002208DF8080003208DF851
:10458000090000208DF80A0001208DF80B0001A918
:10459000BC4803F079FD02221146BA4804F088F8BD
:1045A00002220321B74804F083F8B74800684008A6
:1045B000B0FBF4F0401E85B242F210700990ADF8E5
:1045C00020500020ADF82800ADF8220008A9AF481F
:1045D00005F08AF86020ADF80C000020ADF8180056
:1045E0000120ADF80E004FF47A60059003A9A748AA
:1045F00005F0E8FD0821A54806F0B1F90120ADF865
:104600000E004FF47A60059003A9A04805F0A2FEC1
:1046100008219E4806F0CFF901219C4805F0E9FAEF
:1046200001219A4805F0D1FB4FF4D44001900220BB
:104630008DF8080003208DF8090000208DF80A008D
:1046400001208DF80B0001A9914803F01DFD012206
:1046500009218F4804F02CF801220B218C4804F02A
:1046600027F801220D218A4804F022F801220E21A8
:10467000874804F01DF884480068B0FBF4F0401E41
:1046800085B242F210700990ADF820500020ADF8CC
:104690002800ADF822008DF82A0008A97D4805F011
:1046A00023F86020ADF80C000020ADF81000ADF844
:1046B00018000820ADF81A004001ADF81C000020D9
:1046C000ADF81E000120ADF80E004FF47A600590A1
:1046D00003A9704805F0C1FB08216E4806F0CBF82D
:1046E0004FF47A60059003A96A4805F07EFC082122
:1046F000684806F0FEF84FF47A60059003A9654813
:1047000005F060FD0821634806F029F94FF47A604E
:10471000059003A95F4805F01DFE08215D4806F0DD
:104720004AF901215B4807F0FCF80121594805F0DE
:1047300060FA0121574805F048FB4FF440700190A2
:1047400002208DF8080003208DF8090000208DF864
:104750000A0001208DF80B0001A94F4803F094FCDA
:10476000032208214C4803F0A3FF032209214A48F1
:1047700003F09EFF44480068B0FBF4F0401E85B291
:1047800042F210700990ADF820500020ADF82800DA
:10479000ADF822008DF82A0008A9404804F0A4FFD3
:1047A0006020ADF80C000020ADF81000ADF8180046
:1047B0000820ADF81A004001ADF81C000020ADF84B
:1047C0001E004FF47A60059003A9344805F0FAFC06
:1047D0000821304806F0C3F84FF47A60059003A929
:1047E0002E4805F0B7FD08212A4806F0E4F801211B
:1047F0002A4807F096F80121284805F0FAF9012126
:10480000264805F0E2FA0BB030BDB0F9001089007F
:1048100001F57A611F4A1164B0F90210890001F5AF
:104820007A61D163B0F90410890001F57A6191636E
:10483000B0F90610890001F57A615163B0F90810EA
:10484000890001F57A61114A40321160B0F90A100D
:10485000890001F57A61121F1160B0F90C1089000E
:1048600001F57A610D4A40321160B0F90E108900ED
:1048700001F57A61121F11607047000000093D00C8
:1048800000BD01050000024084010020000C004032
:1048900000100240000001400008024000040140F6
:1048A00000B587B005A803F09AFC02A806F0BBFE8D
:1048B0000121022004F0FAFB0121042004F033FB63
:1048C0001D208DF8040002208DF8050001208DF8D0
:1048D00006008DF8070001A800F077FF8020059002
:1048E00002208DF8180003208DF8190000208DF8A3
:1048F0001A0002208DF81B0005A95D4803F0C4FBD7
:10490000022207215A4803F0D3FE53205949088058
:104910000420ADF808000A20ADF80A000120ADF827
:104920000C000020ADF80E00ADF8100002A95148AF
:10493000283806F092FD01214E48283805F045FA46
:10494000012204214B48283807F05AF807B000BD6F
:1049500010B548481838008800F0040000B34FF63E
:10496000FB704449183908804FF6FF3008804048F2
:104970001030006800F0800090B93E48283806F0FA
:10498000FEFE3D490880084600884988401A84B2E6
:104990002046FEF7C4F9384800883749488000BFF0
:1049A00010BD00B587B0684603F019FC0121202036
:1049B00004F09FFB0121042004F0B5FA47208DF894
:1049C000080004208DF8090001208DF80A008DF8F8
:1049D0000B0002A800F0F9FE08220721244803F08A
:1049E00067FE8020009002208DF804008DF80500FD
:1049F00001208DF8060000208DF8070069461C484C
:104A000003F042FB1D4803900020ADF810004FF466
:104A10000050ADF81200C010ADF814000020ADF841
:104A200018000420ADF8160003A9154807F0DBFEB6
:104A3000012240F22551124808F071FB0121104873
:104A400008F01AF807B000BD10B540F225510C4827
:104A500008F08BFC58B140F22551094808F010FDD0
:104A60000748001D0088C4B22046FEF786F910BD35
:104A700000080240280400406C010020A0860100CC
:104A8000001401403EB504460121202004F00EFB35
:104A90001E4804F04DFD01945320ADF800000020A5
:104AA000ADF80800ADF802006946184804F01CFE95
:104AB0000121164807F0ADF801221146134806F00F
:104AC0009FFF0121114805F080F90021202004F00A
:104AD000EDFA3EBD08B537208DF8000007208DF8AF
:104AE000010001208DF802008DF80300684600F0F7
:104AF0006CFE08BD10B54FF47A70FFF7C3FFFFF7E7
:104B0000E9FF0121202004F0D1FA10BD001400407B
:104B1000704710B58AB0044606A807F048FF012187
:104B2000102004F0E6FA0121084604F0FCF92520E3
:104B30008DF80C0003208DF80D0000208DF80E007C
:104B400001208DF80F0003A800F03FFE0722092185
:104B5000FE4803F0ADFD07220A21FC4803F0A8FD42
:104B60004FF40070019002208DF808008DF80900C4
:104B700000208DF80A0001208DF80B0001A9F348F0
:104B800003F082FA4FF48060019002208DF8080053
:104B90008DF8090001208DF80A0000208DF80B0027
:104BA00001A9EA4803F070FAE94807F0B7FD069456
:104BB0000020ADF81C00ADF81E00ADF82000ADF8E7
:104BC00024000C20ADF822000020ADF81000ADF854
:104BD00012004FF40070ADF814000020ADF816007C
:104BE00006A9DB4807F0FFFD04A9D94807F0EBFE52
:104BF000012240F22551D64808F091FA0121D4480B
:104C000007F03AFF0AB010BD70B505460E46002405
:104C10000AE0295DCF4802780078401CCD4B18701F
:104C2000CD488154601CC4B2B442F2DBC8488089CC
:104C300000F0800028B9012240F22771C44808F032
:104C40006EFA70BDC5490A780978491CC34B1970C2
:104C5000C349885419460978642902DB00211A46A1
:104C60001170704710B510E0BE490A780978491CE8
:104C7000BC4B1970BA49885CFDF728FFB948007829
:104C8000642802DB0020B7490870B4480078B549B1
:104C900009788842E8D110BD10B5AD48008800F011
:104CA000080010B1AA488088C4B240F22551A84833
:104CB00008F05BFB50B140F22551A54808F0E0FB3D
:104CC000A3488088C4B22046FFF7BCFF40F227719A
:104CD0009F4808F04AFBA8B1A34801780078401C1F
:104CE000A14A10709C48405C994988801046007821
:104CF00098490978884205D19548808920F080003C
:104D00009349888110BD10B58AB0044606A807F003
:104D10004EFE0121480404F0C9F90121082004F0E5
:104D200002F926208DF80C0004208DF80D000120DA
:104D30008DF80E008DF80F0003A800F046FD072245
:104D400005218A4803F0B4FC07220621874803F0B6
:104D5000AFFC2020019002208DF808008DF809009A
:104D600000208DF80A0001208DF80B0001A97F4872
:104D700003F08AF94020019002208DF808008DF898
:104D8000090001208DF80A0000208DF80B0001A910
:104D9000764803F079F906940020ADF81C00ADF8D0
:104DA0001E00ADF82000ADF824000C20ADF8220064
:104DB0000020ADF81000ADF812004FF40070ADF80F
:104DC00014000020ADF8160006A9694807F00BFD95
:104DD00004A9674807F0F7FD012240F22551644815
:104DE00008F09DF90121624807F046FE0AB010BDA7
:104DF00070B505460E4600240AE0295D5D4802783C
:104E00000078401C5B4B18705B488154601CC4B236
:104E1000B442F2DB56480C30008800F0800028B91C
:104E2000012240F22771524808F079F970BD5349C8
:104E30000A780978491C514B197051498854194610
:104E40000978642902DB00211A461170704700B509
:104E500010E04C490A780978491C4A4B19704849B6
:104E6000885CFFF755FE47480078642802DB002085
:104E70004449087041480078424909788842E8D19D
:104E800000BD10B53A48008800F0080018B1384855
:104E9000001D0088C4B240F22551354808F065FA7B
:104EA00058B140F22551324808F0EAFA3048001D66
:104EB0000088C4B22046FFF7BAFF40F227712C48A1
:104EC00008F053FAC0B1304801780078401C2E4AEF
:104ED00010702948405C2649091D0880104600785A
:104EE00024490978884207D121480C30008820F0F5
:104EF00080001F490C31088010BD10B58AB00446EF
:104F000006A807F054FD0121880404F0CFF8012120
:104F1000022004F008F827208DF80C0002208DF8FC
:104F20000D0000208DF80E0001208DF80F0003A861
:104F300000F04BFC07220A21144803F0B9FB0722BA
:104F40000B21124803F0B4FB22E0000000000240F5
:104F50000010014071010020AC0C00207201002003
:104F6000AC0D00207301002070010020000C0240F5
:104F70000044004075010020100E00207601002042
:104F8000100F00207701002074010020000402406F
:104F90004FF48060019002208DF808008DF8090020
:104FA00000208DF80A0001208DF80B0001A9FE48B1
:104FB00003F06AF84FF40060019002208DF80800B9
:104FC0008DF8090001208DF80A0000208DF80B00F3
:104FD00001A9F54803F058F806940020ADF81C002C
:104FE000ADF81E00ADF82000ADF824000C20ADF89F
:104FF00022000020ADF81000ADF812004FF4007050
:10500000ADF814000020ADF8160006A9E74807F037
:10501000EAFB04A9E54807F0D6FC012240F225513D
:10502000E24808F07CF80121E04807F025FD0AB0CD
:1050300010BD70B505460E4600240AE0295DDC4827
:1050400002780078401CDA4B1870DA488154601CF2
:10505000C4B2B442F2DBD5480C30008800F08000C6
:1050600028B9012240F22771D04808F058F870BDE5
:10507000D1490A780978491CCF4B1970CF49885417
:1050800019460978642902DB00211A46117070471D
:1050900000B510E0CA490A780978491CC84B197054
:1050A000C649885CFFF734FDC5480078642802DBF8
:1050B0000020C3490870C0480078C1490978884277
:1050C000E8D100BD10B5B948008800F0080018B15B
:1050D000B648001D0088C4B240F22551B34808F01C
:1050E00044F958B140F22551B04808F0C9F9AF4829
:1050F000001D0088C4B22046FFF7BAFF40F22771B6
:10510000AA4808F032F9C0B1AE4801780078401CD6
:10511000AC4A1070A748405CA449091D088010469D
:105120000078A3490978884207D1A0480C3000884C
:1051300020F080009D490C31088010BD10B588B06A
:10514000044604A807F033FC0121C80403F0AEFFB5
:105150000121084603F0E7FE34208DF80C000320FF
:105160008DF80D0001208DF80E008DF80F0003A8BA
:1051700000F02BFB08220021934803F099FA082243
:105180000121914803F094FA0120019002208DF84A
:1051900008008DF8090000208DF80A0001208DF824
:1051A0000B0001A9884802F06FFF022001908DF8E2
:1051B00008008DF8090001208DF80A0000208DF804
:1051C0000B0001A9804802F05FFF04940020ADF8B5
:1051D0001400ADF81600ADF81800ADF81C000C2056
:1051E000ADF81A0004A9794807F0FDFA012240F24F
:1051F0002551764807F093FF0121744807F03CFCE5
:1052000008B010BD70B505460E4600240AE0295DC1
:105210006F4802780078401C6D4B18706D488154BF
:10522000601CC4B2B442F2DB68480C30008800F065
:10523000800028B9012240F22771644807F06FFF0F
:1052400070BD65490A780978491C634B1970634938
:10525000885419460978642902DB00211A46117026
:10526000704710B510E05E490A780978491C5C4B1C
:1052700019705A49885CFEF7D7FC594800786428B1
:1052800002DB0020564908705348007854490978D9
:105290008842E8D110BD10B54C48008800F00800E5
:1052A00018B14A48001D0088C4B240F22551474851
:1052B00008F05BF858B140F22551444808F0E0F896
:1052C0004248001D0088C4B22046FFF7BAFF40F2F2
:1052D00027713E4808F049F8C0B14248017800788B
:1052E000401C404A10703B48405C3849091D08800A
:1052F0001046007836490978884207D133480C3087
:10530000008820F0800031490C31088010BD10B5B4
:1053100088B0044604A807F04AFB0121080503F001
:10532000C5FE0121042003F0FEFD0121082003F049
:10533000FAFD35208DF80C0001208DF80D000020BD
:105340008DF80E0001208DF80F0003A800F03DFA43
:1053500008220C21244803F0ABF90822022123483B
:1053600003F0A6F94FF48050019002208DF8080058
:105370008DF8090000208DF80A0001208DF80B003F
:1053800001A9194802F080FE0420019002208DF846
:1053900008008DF8090001208DF80A0000208DF822
:1053A0000B0001A9114823E000040240004800401E
:1053B00079010020740F00207A0100207410002071
:1053C0007B0100207801002000000240004C0040DA
:1053D0007D010020D81000207E010020D81100207F
:1053E0007F0100207C01002000080240000C0240E8
:1053F00002F04AFE04940020ADF81400ADF8160047
:10540000ADF81800ADF81C000C20ADF81A0004A986
:105410004C4807F0E8F9012240F22551494807F0CD
:105420007EFE0121474807F027FB08B010BD70B58C
:1054300005460E4600240AE0295D434802780078BC
:10544000401C414B187041488154601CC4B2B442A6
:10545000F2DB3C48808900F0800028B9012240F24C
:105460002771384807F05BFE70BD39490A78097822
:10547000491C374B197037498854194609786429F3
:1054800002DB00211A461170704710B510E0324956
:105490000A780978491C304B19702E49885CFBF753
:1054A00078F82D480078642802DB00202A4908702B
:1054B00027480078284909788842E8D110BD10B5FE
:1054C0002048008800F0080010B11E488088C4B24F
:1054D00040F225511B4807F048FF50B140F22551DA
:1054E000184807F0CDFF17488088C4B22046FFF760
:1054F000BCFF40F22771134807F037FFA8B11748E7
:1055000001780078401C154A10701048405C0D4925
:105510008880104600780C490978884205D10948EE
:10552000808920F080000749888110BD10B5FFF701
:1055300099FBFFF78CFCFFF7ABFDFFF792FEFFF73F
:10554000A4FF10BD00500040810100203C1200204B
:10555000820100203C1300208301002080010020F4
:105560000648804706480047FEE7FEE7FEE7FEE7FD
:10557000FEE7FEE7FEE7FEE7FEE7FEE7615600080E
:10558000890100080CB50020019000907648006861
:1055900040F480307449086000BF7348006800F42C
:1055A000003000900198401C0190009818B90198B3
:1055B000B0F5A06FF1D16C48006800F4003010B174
:1055C0000120009001E0002000900098012846D1C1
:1055D00065484030006840F08050634940310860C1
:1055E0006248006840F48040604908605E480830C6
:1055F00000685D49083108600846006840F40040D2
:1056000008600846006840F4A05008605848091F28
:105610000860081F006840F08070091F086000BF24
:105620005148006800F000700028F9D040F2056091
:10563000504908604C480830006820F003004A498F
:10564000083108600846006840F00200086000BFAA
:1056500045480830006800F00C000828F8D10CBD5F
:1056600010B54548006840F47000434908603E4862
:10567000006840F001003C49086000203A490831C8
:105680000860394800683D490840374908603C488F
:10569000091D0860081F006820F48020091F0860A9
:1056A000002031490C310860FFF76CFF4FF00060BB
:1056B00031498039086010BD70B5002000220223F6
:1056C00000240221284D08352D6805F00C0020B17A
:1056D000042806D0082834D107E02A4D2A4E356028
:1056E00033E02A4D284E35602FE01F4D2D1D2D68CB
:1056F000C5F380541C4D2D1D2D6805F03F0154B19C
:10570000224DB5FBF1F5184E361D3668C6F38816E6
:1057100005FB06F209E01B4DB5FBF1F5124E361DF7
:105720003668C6F3881605FB06F20F4D2D1D2D6851
:10573000C5F301456D1C6B00B2FBF3F5124E3560ED
:1057400003E0104D104E356000BF00BF064D083518
:105750002D68C5F303150E4E705D0B4D2D68C540C9
:10576000094E356070BD00000038024000700040F6
:1057700008544007003C024088ED00E0FFFFF6FEC1
:10578000103000240024F4008401002000127A006C
:105790008801002010B50446B4F5E06F0BD0B4F5D5
:1057A000C06F08D0B4F5A06F05D0B4F5806F02D0FB
:1057B000B4F5407F00D103E073215F48FAF7F0FCB5
:1057C0005E4820435E49086010BD2DE9F041044663
:1057D000002500270F26E07810B1E078012800D1DD
:1057E00003E087215448FAF7DBFC6078102800DAE0
:1057F00003E088215048FAF7D3FCA078102800DA9B
:1058000003E089214C48FAF7CBFCE07818B34C4808
:10581000006800F4E060C0F5E060C0F30725C5F162
:105820000400C7B22E416078B840C5B2A0783040BD
:1058300005432807050E434821784554207800F099
:105840001F010120884021784911890001F1E021E0
:10585000C1F8000109E0207800F01F010120884014
:1058600039492278521141F82200BDE8F08170B523
:1058700004460D46B4F1005F02D0B4F1006F00D1D0
:1058800003E0B1212C48FAF78BFC3048854200D266
:1058900003E0B2212848FAF783FC2D4905EA01000C
:1058A00020432749091F086070BD70B504460D46A6
:1058B000102C03D0042C01D0022C00D103E0C42111
:1058C0001D48FAF76DFC0DB1012D00D103E0C52193
:1058D0001948FAF765FC3DB11948001D00682043DE
:1058E0001749091D086006E01548001D0068A0431F
:1058F0001349091D086070BD10B50446042C01D081
:10590000601D00B903E0DC210B48FAF749FC042CC8
:1059100008D14FF0E020006940F004004FF0E02192
:10592000086107E04FF0E020006920F004004FF02C
:10593000E021086110BD000054DE00080000FA05F7
:105940000CED00E000E400E080E100E0FFFF0F006C
:1059500080FFFF1F10B50121080203F08DFC00211C
:105960004FF4807003F088FC10BD2DE9F04105462E
:105970000C4600260027F748854205D0F6488542A8
:1059800002D0F648854200D103E0E921F448FAF755
:1059900007FC206858B12068B0F1807F07D02068EC
:1059A000B0F1007F03D02068B0F1407F00D103E068
:1059B000EA21EB48FAF7F4FB207910B120790128AD
:1059C00000D103E0EB21E648FAF7EAFB607910B179
:1059D0006079012800D103E0EC21E148FAF7E0FB0F
:1059E000A06858B1A068B0F1805F07D0A068B0F19E
:1059F000005F03D0A068B0F1405F00D103E0ED216B
:105A0000D748FAF7CDFBE068D8B3E068B0F1807F03
:105A100037D0E068B0F1007F33D0E068B0F1407F6C
:105A20002FD0E068B0F1806F2BD0E068B0F1A06FAC
:105A300027D0E068B0F1C06F23D0E068B0F1E06F2C
:105A40001FD0E068B0F1006F1BD0E068B0F1106FBC
:105A500017D0E068B0F1206F13D0E068B0F1306F7C
:105A60000FD0E068B0F1406F0BD0E068B0F1506F3C
:105A700007D0E068B0F1606F03D0E068B0F1706FFC
:105A800000D103E0EE21B648FAF78AFB206918B18D
:105A90002069B0F5006F00D103E0EF21B048FAF7BC
:105AA0007FFB207D012803DB207D102800DC03E044
:105AB000F021AB48FAF774FB6E68AA4806402179DA
:105AC000206840EA012006436E60AE68A6480640A2
:105AD000D4E903100843A1680843617940EA410012
